{
  "contractName": "ECommerce",
  "abi": [
    {
      "anonymous": false,
      "inputs": [
        {
          "indexed": false,
          "internalType": "uint256",
          "name": "id",
          "type": "uint256"
        },
        {
          "indexed": false,
          "internalType": "string",
          "name": "name",
          "type": "string"
        },
        {
          "indexed": false,
          "internalType": "uint256",
          "name": "price",
          "type": "uint256"
        },
        {
          "indexed": false,
          "internalType": "address",
          "name": "seller",
          "type": "address"
        }
      ],
      "name": "ProductAdded",
      "type": "event"
    },
    {
      "anonymous": false,
      "inputs": [
        {
          "indexed": false,
          "internalType": "uint256",
          "name": "id",
          "type": "uint256"
        },
        {
          "indexed": false,
          "internalType": "address",
          "name": "buyer",
          "type": "address"
        }
      ],
      "name": "ProductSold",
      "type": "event"
    },
    {
      "inputs": [],
      "name": "productCount",
      "outputs": [
        {
          "internalType": "uint256",
          "name": "",
          "type": "uint256"
        }
      ],
      "stateMutability": "view",
      "type": "function",
      "constant": true
    },
    {
      "inputs": [
        {
          "internalType": "uint256",
          "name": "",
          "type": "uint256"
        }
      ],
      "name": "products",
      "outputs": [
        {
          "internalType": "uint256",
          "name": "id",
          "type": "uint256"
        },
        {
          "internalType": "string",
          "name": "name",
          "type": "string"
        },
        {
          "internalType": "uint256",
          "name": "price",
          "type": "uint256"
        },
        {
          "internalType": "address payable",
          "name": "seller",
          "type": "address"
        },
        {
          "internalType": "bool",
          "name": "sold",
          "type": "bool"
        }
      ],
      "stateMutability": "view",
      "type": "function",
      "constant": true
    },
    {
      "inputs": [
        {
          "internalType": "string",
          "name": "_name",
          "type": "string"
        },
        {
          "internalType": "uint256",
          "name": "_price",
          "type": "uint256"
        }
      ],
      "name": "addProduct",
      "outputs": [],
      "stateMutability": "nonpayable",
      "type": "function"
    },
    {
      "inputs": [
        {
          "internalType": "uint256",
          "name": "_id",
          "type": "uint256"
        }
      ],
      "name": "buyProduct",
      "outputs": [],
      "stateMutability": "payable",
      "type": "function",
      "payable": true
    }
  ],
  "bytecode": "0x60806040525f8055348015610012575f80fd5b50610e34806100205f395ff3fe60806040526004361061003e575f3560e01c80637acc0b20146100425780638642269e14610082578063b15247d91461009e578063e0f6ef87146100c6575b5f80fd5b34801561004d575f80fd5b5061006860048036038101906100639190610556565b6100f0565b604051610079959493929190610673565b60405180910390f35b61009c60048036038101906100979190610556565b6101d4565b005b3480156100a9575f80fd5b506100c460048036038101906100bf91906107f7565b610390565b005b3480156100d1575f80fd5b506100da61050d565b6040516100e79190610851565b60405180910390f35b6001602052805f5260405f205f91509050805f01549080600101805461011590610897565b80601f016020809104026020016040519081016040528092919081815260200182805461014190610897565b801561018c5780601f106101635761010080835404028352916020019161018c565b820191905f5260205f20905b81548152906001019060200180831161016f57829003601f168201915b505050505090806002015490806003015f9054906101000a900473ffffffffffffffffffffffffffffffffffffffff16908060030160149054906101000a900460ff16905085565b5f60015f8381526020019081526020015f2090505f821180156101f857505f548211155b610237576040517f08c379a000000000000000000000000000000000000000000000000000000000815260040161022e90610911565b60405180910390fd5b8060020154341461027d576040517f08c379a000000000000000000000000000000000000000000000000000000000815260040161027490610979565b60405180910390fd5b8060030160149054906101000a900460ff16156102cf576040517f08c379a00000000000000000000000000000000000000000000000000000000081526004016102c6906109e1565b60405180910390fd5b806003015f9054906101000a900473ffffffffffffffffffffffffffffffffffffffff1673ffffffffffffffffffffffffffffffffffffffff166108fc3490811502906040515f60405180830381858888f19350505050158015610335573d5f803e3d5ffd5b5060018160030160146101000a81548160ff0219169083151502179055507fbdb79f0b777669cf4d01754a6d6b461bdd8d0f18b57c036e7d4bf3a567f337848233604051610384929190610a1f565b60405180910390a15050565b5f81116103d2576040517f08c379a00000000000000000000000000000000000000000000000000000000081526004016103c990610ab6565b60405180910390fd5b5f808154809291906103e390610b01565b91905055506040518060a001604052805f5481526020018381526020018281526020013373ffffffffffffffffffffffffffffffffffffffff1681526020015f151581525060015f805481526020019081526020015f205f820151815f015560208201518160010190816104579190610ce5565b50604082015181600201556060820151816003015f6101000a81548173ffffffffffffffffffffffffffffffffffffffff021916908373ffffffffffffffffffffffffffffffffffffffff16021790555060808201518160030160146101000a81548160ff0219169083151502179055509050507f52402cafb2ecec722b103e8f203f83362148c168659dc96678c2c6850d12dd9f5f548383336040516105019493929190610db4565b60405180910390a15050565b5f5481565b5f604051905090565b5f80fd5b5f80fd5b5f819050919050565b61053581610523565b811461053f575f80fd5b50565b5f813590506105508161052c565b92915050565b5f6020828403121561056b5761056a61051b565b5b5f61057884828501610542565b91505092915050565b61058a81610523565b82525050565b5f81519050919050565b5f82825260208201905092915050565b5f5b838110156105c75780820151818401526020810190506105ac565b5f8484015250505050565b5f601f19601f8301169050919050565b5f6105ec82610590565b6105f6818561059a565b93506106068185602086016105aa565b61060f816105d2565b840191505092915050565b5f73ffffffffffffffffffffffffffffffffffffffff82169050919050565b5f6106438261061a565b9050919050565b61065381610639565b82525050565b5f8115159050919050565b61066d81610659565b82525050565b5f60a0820190506106865f830188610581565b818103602083015261069881876105e2565b90506106a76040830186610581565b6106b4606083018561064a565b6106c16080830184610664565b9695505050505050565b5f80fd5b5f80fd5b7f4e487b71000000000000000000000000000000000000000000000000000000005f52604160045260245ffd5b610709826105d2565b810181811067ffffffffffffffff82111715610728576107276106d3565b5b80604052505050565b5f61073a610512565b90506107468282610700565b919050565b5f67ffffffffffffffff821115610765576107646106d3565b5b61076e826105d2565b9050602081019050919050565b828183375f83830152505050565b5f61079b6107968461074b565b610731565b9050828152602081018484840111156107b7576107b66106cf565b5b6107c284828561077b565b509392505050565b5f82601f8301126107de576107dd6106cb565b5b81356107ee848260208601610789565b91505092915050565b5f806040838503121561080d5761080c61051b565b5b5f83013567ffffffffffffffff81111561082a5761082961051f565b5b610836858286016107ca565b925050602061084785828601610542565b9150509250929050565b5f6020820190506108645f830184610581565b92915050565b7f4e487b71000000000000000000000000000000000000000000000000000000005f52602260045260245ffd5b5f60028204905060018216806108ae57607f821691505b6020821081036108c1576108c061086a565b5b50919050565b7f50726f647563746f206e6f2065786973746500000000000000000000000000005f82015250565b5f6108fb60128361059a565b9150610906826108c7565b602082019050919050565b5f6020820190508181035f830152610928816108ef565b9050919050565b7f4d6f6e746f20696e636f72726563746f000000000000000000000000000000005f82015250565b5f61096360108361059a565b915061096e8261092f565b602082019050919050565b5f6020820190508181035f83015261099081610957565b9050919050565b7f50726f647563746f2079612076656e6469646f000000000000000000000000005f82015250565b5f6109cb60138361059a565b91506109d682610997565b602082019050919050565b5f6020820190508181035f8301526109f8816109bf565b9050919050565b5f610a098261061a565b9050919050565b610a19816109ff565b82525050565b5f604082019050610a325f830185610581565b610a3f6020830184610a10565b9392505050565b7f456c2070726563696f206465626520736572206d61796f7220717565206365725f8201527f6f00000000000000000000000000000000000000000000000000000000000000602082015250565b5f610aa060218361059a565b9150610aab82610a46565b604082019050919050565b5f6020820190508181035f830152610acd81610a94565b9050919050565b7f4e487b71000000000000000000000000000000000000000000000000000000005f52601160045260245ffd5b5f610b0b82610523565b91507fffffffffffffffffffffffffffffffffffffffffffffffffffffffffffffffff8203610b3d57610b3c610ad4565b5b600182019050919050565b5f819050815f5260205f209050919050565b5f6020601f8301049050919050565b5f82821b905092915050565b5f60088302610ba47fffffffffffffffffffffffffffffffffffffffffffffffffffffffffffffffff82610b69565b610bae8683610b69565b95508019841693508086168417925050509392505050565b5f819050919050565b5f610be9610be4610bdf84610523565b610bc6565b610523565b9050919050565b5f819050919050565b610c0283610bcf565b610c16610c0e82610bf0565b848454610b75565b825550505050565b5f90565b610c2a610c1e565b610c35818484610bf9565b505050565b5b81811015610c5857610c4d5f82610c22565b600181019050610c3b565b5050565b601f821115610c9d57610c6e81610b48565b610c7784610b5a565b81016020851015610c86578190505b610c9a610c9285610b5a565b830182610c3a565b50505b505050565b5f82821c905092915050565b5f610cbd5f1984600802610ca2565b1980831691505092915050565b5f610cd58383610cae565b9150826002028217905092915050565b610cee82610590565b67ffffffffffffffff811115610d0757610d066106d3565b5b610d118254610897565b610d1c828285610c5c565b5f60209050601f831160018114610d4d575f8415610d3b578287015190505b610d458582610cca565b865550610dac565b601f198416610d5b86610b48565b5f5b82811015610d8257848901518255600182019150602085019450602081019050610d5d565b86831015610d9f5784890151610d9b601f891682610cae565b8355505b6001600288020188555050505b505050505050565b5f608082019050610dc75f830187610581565b8181036020830152610dd981866105e2565b9050610de86040830185610581565b610df56060830184610a10565b9594505050505056fea2646970667358221220e6a7a4153863ad812bea1c4ba7a0c29d5b10fe49ec8aa1a04e1dd0a5809ae3eb64736f6c63430008150033",
  "immutableReferences": {},
  "source": "// SPDX-License-Identifier: MIT\r\npragma solidity ^0.8.0;\r\n\r\ncontract ECommerce {\r\n    struct Product {\r\n        uint id;\r\n        string name;\r\n        uint price;\r\n        address payable seller;\r\n        bool sold;\r\n    }\r\n\r\n    uint public productCount = 0;\r\n    mapping(uint => Product) public products;\r\n\r\n    event ProductAdded(uint id, string name, uint price, address seller);\r\n    event ProductSold(uint id, address buyer);\r\n\r\n    function addProduct(string memory _name, uint _price) public {\r\n        require(_price > 0, \"El precio debe ser mayor que cero\");\r\n        productCount++;\r\n        products[productCount] = Product(productCount, _name, _price, payable(msg.sender), false);\r\n        emit ProductAdded(productCount, _name, _price, msg.sender);\r\n    }\r\n\r\n    function buyProduct(uint _id) public payable {\r\n        Product storage product = products[_id];\r\n        require(_id > 0 && _id <= productCount, \"Producto no existe\");\r\n        require(msg.value == product.price, \"Monto incorrecto\");\r\n        require(!product.sold, \"Producto ya vendido\");\r\n\r\n        product.seller.transfer(msg.value);\r\n        product.sold = true;\r\n\r\n        emit ProductSold(_id, msg.sender);\r\n    }\r\n}\r\n",
  "sourcePath": "C:\\Users\\guill\\E-Trade_dapp\\contracts\\ecomerce.sol",
  "compiler": {
    "name": "solc",
    "version": "0.8.21+commit.d9974bed.Emscripten.clang"
  },
  "schemaVersion": "3.4.16",
  "updatedAt": "2025-04-12T14:46:27.116Z",
  "networkType": "ethereum",
  "devdoc": {
    "kind": "dev",
    "methods": {},
    "version": 1
  },
  "userdoc": {
    "kind": "user",
    "methods": {},
    "version": 1
  }
}